{
  "_format": "hh-sol-artifact-1",
  "contractName": "LPStaking",
  "sourceName": "contracts/LPStaking.sol",
  "abi": [
    {
      "inputs": [
        {
          "internalType": "address",
          "name": "_rewardToken",
          "type": "address"
        },
        {
          "internalType": "address[]",
          "name": "_initialSigners",
          "type": "address[]"
        }
      ],
      "stateMutability": "nonpayable",
      "type": "constructor"
    },
    {
      "inputs": [],
      "name": "AccessControlBadConfirmation",
      "type": "error"
    },
    {
      "inputs": [
        {
          "internalType": "address",
          "name": "account",
          "type": "address"
        },
        {
          "internalType": "bytes32",
          "name": "neededRole",
          "type": "bytes32"
        }
      ],
      "name": "AccessControlUnauthorizedAccount",
      "type": "error"
    },
    {
      "inputs": [],
      "name": "ReentrancyGuardReentrantCall",
      "type": "error"
    },
    {
      "inputs": [
        {
          "internalType": "address",
          "name": "token",
          "type": "address"
        }
      ],
      "name": "SafeERC20FailedOperation",
      "type": "error"
    },
    {
      "anonymous": false,
      "inputs": [
        {
          "indexed": false,
          "internalType": "uint256",
          "name": "actionId",
          "type": "uint256"
        },
        {
          "indexed": false,
          "internalType": "address",
          "name": "approver",
          "type": "address"
        }
      ],
      "name": "ActionApproved",
      "type": "event"
    },
    {
      "anonymous": false,
      "inputs": [
        {
          "indexed": false,
          "internalType": "uint256",
          "name": "actionId",
          "type": "uint256"
        }
      ],
      "name": "ActionExecuted",
      "type": "event"
    },
    {
      "anonymous": false,
      "inputs": [
        {
          "indexed": false,
          "internalType": "uint256",
          "name": "actionId",
          "type": "uint256"
        },
        {
          "indexed": false,
          "internalType": "address",
          "name": "proposer",
          "type": "address"
        },
        {
          "indexed": false,
          "internalType": "enum LPStaking.ActionType",
          "name": "actionType",
          "type": "uint8"
        }
      ],
      "name": "ActionProposed",
      "type": "event"
    },
    {
      "anonymous": false,
      "inputs": [
        {
          "indexed": false,
          "internalType": "uint256",
          "name": "newRate",
          "type": "uint256"
        }
      ],
      "name": "DailyRateUpdated",
      "type": "event"
    },
    {
      "anonymous": false,
      "inputs": [
        {
          "indexed": false,
          "internalType": "address",
          "name": "lpToken",
          "type": "address"
        },
        {
          "indexed": false,
          "internalType": "string",
          "name": "platform",
          "type": "string"
        },
        {
          "indexed": false,
          "internalType": "uint256",
          "name": "weight",
          "type": "uint256"
        }
      ],
      "name": "PairAdded",
      "type": "event"
    },
    {
      "anonymous": false,
      "inputs": [
        {
          "indexed": false,
          "internalType": "address",
          "name": "user",
          "type": "address"
        },
        {
          "indexed": false,
          "internalType": "address",
          "name": "lpToken",
          "type": "address"
        },
        {
          "indexed": false,
          "internalType": "uint256",
          "name": "amount",
          "type": "uint256"
        }
      ],
      "name": "RewardsClaimed",
      "type": "event"
    },
    {
      "anonymous": false,
      "inputs": [
        {
          "indexed": true,
          "internalType": "bytes32",
          "name": "role",
          "type": "bytes32"
        },
        {
          "indexed": true,
          "internalType": "bytes32",
          "name": "previousAdminRole",
          "type": "bytes32"
        },
        {
          "indexed": true,
          "internalType": "bytes32",
          "name": "newAdminRole",
          "type": "bytes32"
        }
      ],
      "name": "RoleAdminChanged",
      "type": "event"
    },
    {
      "anonymous": false,
      "inputs": [
        {
          "indexed": true,
          "internalType": "bytes32",
          "name": "role",
          "type": "bytes32"
        },
        {
          "indexed": true,
          "internalType": "address",
          "name": "account",
          "type": "address"
        },
        {
          "indexed": true,
          "internalType": "address",
          "name": "sender",
          "type": "address"
        }
      ],
      "name": "RoleGranted",
      "type": "event"
    },
    {
      "anonymous": false,
      "inputs": [
        {
          "indexed": true,
          "internalType": "bytes32",
          "name": "role",
          "type": "bytes32"
        },
        {
          "indexed": true,
          "internalType": "address",
          "name": "account",
          "type": "address"
        },
        {
          "indexed": true,
          "internalType": "address",
          "name": "sender",
          "type": "address"
        }
      ],
      "name": "RoleRevoked",
      "type": "event"
    },
    {
      "anonymous": false,
      "inputs": [
        {
          "indexed": false,
          "internalType": "address",
          "name": "oldSigner",
          "type": "address"
        },
        {
          "indexed": false,
          "internalType": "address",
          "name": "newSigner",
          "type": "address"
        }
      ],
      "name": "SignerChanged",
      "type": "event"
    },
    {
      "anonymous": false,
      "inputs": [
        {
          "indexed": false,
          "internalType": "address",
          "name": "user",
          "type": "address"
        },
        {
          "indexed": false,
          "internalType": "address",
          "name": "lpToken",
          "type": "address"
        },
        {
          "indexed": false,
          "internalType": "uint256",
          "name": "amount",
          "type": "uint256"
        }
      ],
      "name": "StakeAdded",
      "type": "event"
    },
    {
      "anonymous": false,
      "inputs": [
        {
          "indexed": false,
          "internalType": "address",
          "name": "user",
          "type": "address"
        },
        {
          "indexed": false,
          "internalType": "address",
          "name": "lpToken",
          "type": "address"
        },
        {
          "indexed": false,
          "internalType": "uint256",
          "name": "amount",
          "type": "uint256"
        }
      ],
      "name": "StakeRemoved",
      "type": "event"
    },
    {
      "anonymous": false,
      "inputs": [
        {
          "indexed": false,
          "internalType": "address[]",
          "name": "pairs",
          "type": "address[]"
        },
        {
          "indexed": false,
          "internalType": "uint256[]",
          "name": "weights",
          "type": "uint256[]"
        }
      ],
      "name": "WeightsUpdated",
      "type": "event"
    },
    {
      "inputs": [],
      "name": "ADMIN_ROLE",
      "outputs": [
        {
          "internalType": "bytes32",
          "name": "",
          "type": "bytes32"
        }
      ],
      "stateMutability": "view",
      "type": "function"
    },
    {
      "inputs": [],
      "name": "DEFAULT_ADMIN_ROLE",
      "outputs": [
        {
          "internalType": "bytes32",
          "name": "",
          "type": "bytes32"
        }
      ],
      "stateMutability": "view",
      "type": "function"
    },
    {
      "inputs": [],
      "name": "MAX_PAIRS",
      "outputs": [
        {
          "internalType": "uint256",
          "name": "",
          "type": "uint256"
        }
      ],
      "stateMutability": "view",
      "type": "function"
    },
    {
      "inputs": [],
      "name": "MAX_WEIGHT",
      "outputs": [
        {
          "internalType": "uint256",
          "name": "",
          "type": "uint256"
        }
      ],
      "stateMutability": "view",
      "type": "function"
    },
    {
      "inputs": [],
      "name": "MIN_SIGNERS",
      "outputs": [
        {
          "internalType": "uint256",
          "name": "",
          "type": "uint256"
        }
      ],
      "stateMutability": "view",
      "type": "function"
    },
    {
      "inputs": [],
      "name": "MIN_STAKE",
      "outputs": [
        {
          "internalType": "uint256",
          "name": "",
          "type": "uint256"
        }
      ],
      "stateMutability": "view",
      "type": "function"
    },
    {
      "inputs": [],
      "name": "PRECISION",
      "outputs": [
        {
          "internalType": "uint256",
          "name": "",
          "type": "uint256"
        }
      ],
      "stateMutability": "view",
      "type": "function"
    },
    {
      "inputs": [],
      "name": "REQUIRED_APPROVALS",
      "outputs": [
        {
          "internalType": "uint256",
          "name": "",
          "type": "uint256"
        }
      ],
      "stateMutability": "view",
      "type": "function"
    },
    {
      "inputs": [],
      "name": "TOTAL_SIGNERS",
      "outputs": [
        {
          "internalType": "uint256",
          "name": "",
          "type": "uint256"
        }
      ],
      "stateMutability": "view",
      "type": "function"
    },
    {
      "inputs": [],
      "name": "actionCounter",
      "outputs": [
        {
          "internalType": "uint256",
          "name": "",
          "type": "uint256"
        }
      ],
      "stateMutability": "view",
      "type": "function"
    },
    {
      "inputs": [
        {
          "internalType": "uint256",
          "name": "",
          "type": "uint256"
        }
      ],
      "name": "actions",
      "outputs": [
        {
          "internalType": "enum LPStaking.ActionType",
          "name": "actionType",
          "type": "uint8"
        },
        {
          "internalType": "uint256",
          "name": "newDailyRewardRate",
          "type": "uint256"
        },
        {
          "internalType": "address",
          "name": "pairToAdd",
          "type": "address"
        },
        {
          "internalType": "string",
          "name": "platformToAdd",
          "type": "string"
        },
        {
          "internalType": "uint256",
          "name": "weightToAdd",
          "type": "uint256"
        },
        {
          "internalType": "bool",
          "name": "executed",
          "type": "bool"
        },
        {
          "internalType": "uint8",
          "name": "approvals",
          "type": "uint8"
        }
      ],
      "stateMutability": "view",
      "type": "function"
    },
    {
      "inputs": [
        {
          "internalType": "uint256",
          "name": "",
          "type": "uint256"
        }
      ],
      "name": "activePairs",
      "outputs": [
        {
          "internalType": "address",
          "name": "",
          "type": "address"
        }
      ],
      "stateMutability": "view",
      "type": "function"
    },
    {
      "inputs": [
        {
          "internalType": "uint256",
          "name": "actionId",
          "type": "uint256"
        }
      ],
      "name": "approveAction",
      "outputs": [],
      "stateMutability": "nonpayable",
      "type": "function"
    },
    {
      "inputs": [
        {
          "internalType": "address",
          "name": "oldSigner",
          "type": "address"
        },
        {
          "internalType": "address",
          "name": "newSigner",
          "type": "address"
        }
      ],
      "name": "changeSigner",
      "outputs": [],
      "stateMutability": "nonpayable",
      "type": "function"
    },
    {
      "inputs": [
        {
          "internalType": "address",
          "name": "lpToken",
          "type": "address"
        }
      ],
      "name": "claimRewards",
      "outputs": [],
      "stateMutability": "nonpayable",
      "type": "function"
    },
    {
      "inputs": [],
      "name": "dailyRewardRate",
      "outputs": [
        {
          "internalType": "uint256",
          "name": "",
          "type": "uint256"
        }
      ],
      "stateMutability": "view",
      "type": "function"
    },
    {
      "inputs": [
        {
          "internalType": "uint256",
          "name": "actionId",
          "type": "uint256"
        }
      ],
      "name": "executeAction",
      "outputs": [],
      "stateMutability": "nonpayable",
      "type": "function"
    },
    {
      "inputs": [],
      "name": "getActivePairs",
      "outputs": [
        {
          "internalType": "address[]",
          "name": "",
          "type": "address[]"
        }
      ],
      "stateMutability": "view",
      "type": "function"
    },
    {
      "inputs": [
        {
          "internalType": "address",
          "name": "lpToken",
          "type": "address"
        }
      ],
      "name": "getPairInfo",
      "outputs": [
        {
          "internalType": "contract IERC20",
          "name": "token",
          "type": "address"
        },
        {
          "internalType": "string",
          "name": "platform",
          "type": "string"
        },
        {
          "internalType": "uint256",
          "name": "weight",
          "type": "uint256"
        },
        {
          "internalType": "bool",
          "name": "isActive",
          "type": "bool"
        }
      ],
      "stateMutability": "view",
      "type": "function"
    },
    {
      "inputs": [],
      "name": "getPairs",
      "outputs": [
        {
          "components": [
            {
              "internalType": "contract IERC20",
              "name": "lpToken",
              "type": "address"
            },
            {
              "internalType": "string",
              "name": "platform",
              "type": "string"
            },
            {
              "internalType": "uint256",
              "name": "weight",
              "type": "uint256"
            },
            {
              "internalType": "bool",
              "name": "isActive",
              "type": "bool"
            }
          ],
          "internalType": "struct LPStaking.LiquidityPair[]",
          "name": "",
          "type": "tuple[]"
        }
      ],
      "stateMutability": "view",
      "type": "function"
    },
    {
      "inputs": [
        {
          "internalType": "bytes32",
          "name": "role",
          "type": "bytes32"
        }
      ],
      "name": "getRoleAdmin",
      "outputs": [
        {
          "internalType": "bytes32",
          "name": "",
          "type": "bytes32"
        }
      ],
      "stateMutability": "view",
      "type": "function"
    },
    {
      "inputs": [],
      "name": "getSigners",
      "outputs": [
        {
          "internalType": "address[]",
          "name": "",
          "type": "address[]"
        }
      ],
      "stateMutability": "view",
      "type": "function"
    },
    {
      "inputs": [
        {
          "internalType": "address",
          "name": "user",
          "type": "address"
        },
        {
          "internalType": "address",
          "name": "lpToken",
          "type": "address"
        }
      ],
      "name": "getUserStakeInfo",
      "outputs": [
        {
          "internalType": "uint256",
          "name": "amount",
          "type": "uint256"
        },
        {
          "internalType": "uint256",
          "name": "pendingRewards",
          "type": "uint256"
        },
        {
          "internalType": "uint256",
          "name": "lastRewardTime",
          "type": "uint256"
        }
      ],
      "stateMutability": "view",
      "type": "function"
    },
    {
      "inputs": [
        {
          "internalType": "address",
          "name": "user",
          "type": "address"
        }
      ],
      "name": "getUserStakes",
      "outputs": [
        {
          "components": [
            {
              "internalType": "uint256",
              "name": "amount",
              "type": "uint256"
            },
            {
              "internalType": "uint256",
              "name": "lastRewardTime",
              "type": "uint256"
            },
            {
              "internalType": "uint256",
              "name": "pendingRewards",
              "type": "uint256"
            }
          ],
          "internalType": "struct LPStaking.UserStake[]",
          "name": "",
          "type": "tuple[]"
        }
      ],
      "stateMutability": "view",
      "type": "function"
    },
    {
      "inputs": [
        {
          "internalType": "bytes32",
          "name": "role",
          "type": "bytes32"
        },
        {
          "internalType": "address",
          "name": "account",
          "type": "address"
        }
      ],
      "name": "grantRole",
      "outputs": [],
      "stateMutability": "nonpayable",
      "type": "function"
    },
    {
      "inputs": [
        {
          "internalType": "bytes32",
          "name": "role",
          "type": "bytes32"
        },
        {
          "internalType": "address",
          "name": "account",
          "type": "address"
        }
      ],
      "name": "hasRole",
      "outputs": [
        {
          "internalType": "bool",
          "name": "",
          "type": "bool"
        }
      ],
      "stateMutability": "view",
      "type": "function"
    },
    {
      "inputs": [
        {
          "internalType": "address",
          "name": "",
          "type": "address"
        }
      ],
      "name": "pairs",
      "outputs": [
        {
          "internalType": "contract IERC20",
          "name": "lpToken",
          "type": "address"
        },
        {
          "internalType": "string",
          "name": "platform",
          "type": "string"
        },
        {
          "internalType": "uint256",
          "name": "weight",
          "type": "uint256"
        },
        {
          "internalType": "bool",
          "name": "isActive",
          "type": "bool"
        }
      ],
      "stateMutability": "view",
      "type": "function"
    },
    {
      "inputs": [
        {
          "internalType": "address",
          "name": "lpToken",
          "type": "address"
        },
        {
          "internalType": "string",
          "name": "platform",
          "type": "string"
        },
        {
          "internalType": "uint256",
          "name": "weight",
          "type": "uint256"
        }
      ],
      "name": "proposeAddPair",
      "outputs": [
        {
          "internalType": "uint256",
          "name": "",
          "type": "uint256"
        }
      ],
      "stateMutability": "nonpayable",
      "type": "function"
    },
    {
      "inputs": [
        {
          "internalType": "uint256",
          "name": "newRate",
          "type": "uint256"
        }
      ],
      "name": "proposeSetDailyRewardRate",
      "outputs": [
        {
          "internalType": "uint256",
          "name": "",
          "type": "uint256"
        }
      ],
      "stateMutability": "nonpayable",
      "type": "function"
    },
    {
      "inputs": [
        {
          "internalType": "address[]",
          "name": "lpTokens",
          "type": "address[]"
        },
        {
          "internalType": "uint256[]",
          "name": "weights",
          "type": "uint256[]"
        }
      ],
      "name": "proposeUpdatePairWeights",
      "outputs": [
        {
          "internalType": "uint256",
          "name": "",
          "type": "uint256"
        }
      ],
      "stateMutability": "nonpayable",
      "type": "function"
    },
    {
      "inputs": [
        {
          "internalType": "bytes32",
          "name": "role",
          "type": "bytes32"
        },
        {
          "internalType": "address",
          "name": "callerConfirmation",
          "type": "address"
        }
      ],
      "name": "renounceRole",
      "outputs": [],
      "stateMutability": "nonpayable",
      "type": "function"
    },
    {
      "inputs": [
        {
          "internalType": "bytes32",
          "name": "role",
          "type": "bytes32"
        },
        {
          "internalType": "address",
          "name": "account",
          "type": "address"
        }
      ],
      "name": "revokeRole",
      "outputs": [],
      "stateMutability": "nonpayable",
      "type": "function"
    },
    {
      "inputs": [],
      "name": "rewardToken",
      "outputs": [
        {
          "internalType": "contract IERC20",
          "name": "",
          "type": "address"
        }
      ],
      "stateMutability": "view",
      "type": "function"
    },
    {
      "inputs": [
        {
          "internalType": "uint256",
          "name": "",
          "type": "uint256"
        }
      ],
      "name": "signers",
      "outputs": [
        {
          "internalType": "address",
          "name": "",
          "type": "address"
        }
      ],
      "stateMutability": "view",
      "type": "function"
    },
    {
      "inputs": [
        {
          "internalType": "address",
          "name": "lpToken",
          "type": "address"
        },
        {
          "internalType": "uint256",
          "name": "amount",
          "type": "uint256"
        }
      ],
      "name": "stake",
      "outputs": [],
      "stateMutability": "nonpayable",
      "type": "function"
    },
    {
      "inputs": [
        {
          "internalType": "bytes4",
          "name": "interfaceId",
          "type": "bytes4"
        }
      ],
      "name": "supportsInterface",
      "outputs": [
        {
          "internalType": "bool",
          "name": "",
          "type": "bool"
        }
      ],
      "stateMutability": "view",
      "type": "function"
    },
    {
      "inputs": [],
      "name": "totalWeight",
      "outputs": [
        {
          "internalType": "uint256",
          "name": "",
          "type": "uint256"
        }
      ],
      "stateMutability": "view",
      "type": "function"
    },
    {
      "inputs": [
        {
          "internalType": "address",
          "name": "lpToken",
          "type": "address"
        },
        {
          "internalType": "uint256",
          "name": "amount",
          "type": "uint256"
        }
      ],
      "name": "unstake",
      "outputs": [],
      "stateMutability": "nonpayable",
      "type": "function"
    },
    {
      "inputs": [
        {
          "internalType": "address",
          "name": "",
          "type": "address"
        },
        {
          "internalType": "address",
          "name": "",
          "type": "address"
        }
      ],
      "name": "userStakes",
      "outputs": [
        {
          "internalType": "uint256",
          "name": "amount",
          "type": "uint256"
        },
        {
          "internalType": "uint256",
          "name": "lastRewardTime",
          "type": "uint256"
        },
        {
          "internalType": "uint256",
          "name": "pendingRewards",
          "type": "uint256"
        }
      ],
      "stateMutability": "view",
      "type": "function"
    }
  ],
  "bytecode": "0x608060405234801561001057600080fd5b5060405161316a38038061316a83398101604081905261002f9161026b565b600160005580516004146100895760405162461bcd60e51b815260206004820152601e60248201527f4d7573742070726f766964652065786163746c792034207369676e6572730000604482015260640160405180910390fd5b600280546001600160a01b0319166001600160a01b03841617905580516100b79060079060208401906101bf565b506100c360003361012a565b5060005b8151811015610122576101197fa49807205ce4d355092ef5a8a18f56e8913cf4a201fbe287825b095693c217758383815181106101065761010661034e565b602002602001015161012a60201b60201c565b506001016100c7565b505050610364565b60008281526001602090815260408083206001600160a01b038516845290915281205460ff166101b55760008381526001602081815260408084206001600160a01b0387168086529252808420805460ff19169093179092559051339286917f2f8788117e7eff1d82e926ec794901d17c78024a50270940304540a733656f0d9190a45060016101b9565b5060005b92915050565b828054828255906000526020600020908101928215610214579160200282015b8281111561021457825182546001600160a01b0319166001600160a01b039091161782556020909201916001909101906101df565b50610220929150610224565b5090565b5b808211156102205760008155600101610225565b80516001600160a01b038116811461025057600080fd5b919050565b634e487b7160e01b600052604160045260246000fd5b6000806040838503121561027e57600080fd5b61028783610239565b60208401519092506001600160401b038111156102a357600080fd5b8301601f810185136102b457600080fd5b80516001600160401b038111156102cd576102cd610255565b604051600582901b90603f8201601f191681016001600160401b03811182821017156102fb576102fb610255565b60405291825260208184018101929081018884111561031957600080fd5b6020850194505b8385101561033f5761033185610239565b815260209485019401610320565b50809450505050509250929050565b634e487b7160e01b600052603260045260246000fd5b612df7806103736000396000f3fe608060405234801561001057600080fd5b506004361061023d5760003560e01c8063996cf2331161013b578063d4ff73f7116100b8578063ec9422911161007c578063ec94229114610558578063ef5cfb8c1461056b578063f7c618c11461057e578063fdbd98b014610591578063fe33b3021461059a57600080fd5b8063d4ff73f7146104c0578063d547741f146104e3578063d785b595146104f6578063e4a28a521461053c578063e65f55b91461054557600080fd5b8063c0c1cf55116100ff578063c0c1cf551461047b578063c1e3d2dd1461048e578063c2a672e014610497578063cb1c2b5c146104aa578063cb43cfa4146104b857600080fd5b8063996cf23314610436578063a217fddf1461043e578063aaf5eb6814610446578063adc9772e14610455578063af98f8b31461046857600080fd5b8063599c5533116101c9578063842e29811161018d578063842e29811461039d578063862d2d7c146103bd57806391d148541461041257806394cf795e1461042557806396c82e571461042d57600080fd5b8063599c553314610330578063602baccc1461033857806375b238fc1461034d578063767eb5ef1461036257806383240f831461037757600080fd5b806328119ffa1161021057806328119ffa146102dc5780632f1b1d3f146102ef5780632f2ff15d146102f757806336568abe1461030a5780633f8a46ee1461031d57600080fd5b806301ffc9a71461024257806315e6b0221461026a5780632079fb9a1461027f578063248a9ca3146102aa575b600080fd5b610255610250366004612463565b6105ad565b60405190151581526020015b60405180910390f35b61027d6102783660046124b0565b6105e4565b005b61029261028d3660046124e3565b610857565b6040516001600160a01b039091168152602001610261565b6102ce6102b83660046124e3565b6000908152600160208190526040909120015490565b604051908152602001610261565b6102926102ea3660046124e3565b610881565b6102ce600381565b61027d6103053660046124fc565b610891565b61027d6103183660046124fc565b6108bd565b61027d61032b3660046124e3565b6108f5565b6102ce600181565b61034061096b565b604051610261919061251f565b6102ce600080516020612da283398151915281565b61036a6109cd565b60405161026191906125b1565b61038a6103853660046124e3565b610b95565b6040516102619796959493929190612686565b6103b06103ab3660046126dc565b610c6f565b60405161026191906126f7565b6103f76103cb3660046124b0565b600560209081526000928352604080842090915290825290208054600182015460029092015490919083565b60408051938452602084019290925290820152606001610261565b6102556104203660046124fc565b610e81565b610340610eac565b6102ce60085481565b6102ce606481565b6102ce600081565b6102ce670de0b6b3a764000081565b61027d61046336600461274b565b610f0c565b6102ce6104763660046124e3565b6110ea565b61027d6104893660046124e3565b61118c565b6102ce60035481565b61027d6104a536600461274b565b61188c565b6102ce66038d7ea4c6800081565b6102ce600481565b6104d36104ce3660046126dc565b6119a4565b6040516102619493929190612775565b61027d6104f13660046124fc565b611a7c565b6103f76105043660046124b0565b6001600160a01b0391821660009081526005602090815260408083209390941682529190915220805460028201546001909201549092565b6102ce61271081565b6102ce6105533660046127fd565b611aa2565b6102ce61056636600461286e565b611bb1565b61027d6105793660046126dc565b611cad565b600254610292906001600160a01b031681565b6102ce60095481565b6104d36105a83660046126dc565b611dd1565b60006001600160e01b03198216637965db0b60e01b14806105de57506301ffc9a760e01b6001600160e01b03198316145b92915050565b6105fc600080516020612da283398151915233610e81565b61063e5760405162461bcd60e51b815260206004820152600e60248201526d139bdd08185d5d1a1bdc9a5e995960921b60448201526064015b60405180910390fd5b610656600080516020612da283398151915283610e81565b6106995760405162461bcd60e51b815260206004820152601460248201527313db19081cda59db995c881b9bdd08199bdd5b9960621b6044820152606401610635565b6106b1600080516020612da283398151915282610e81565b156106fe5760405162461bcd60e51b815260206004820152601960248201527f4e6577207369676e657220616c726561647920657869737473000000000000006044820152606401610635565b6001600160a01b0381166107495760405162461bcd60e51b815260206004820152601260248201527124b73b30b634b2103732bb9039b4b3b732b960711b6044820152606401610635565b610761600080516020612da283398151915283611e90565b5061077a600080516020612da283398151915282611f05565b5060005b60075481101561080e57826001600160a01b0316600782815481106107a5576107a56128fa565b6000918252602090912001546001600160a01b0316036108065781600782815481106107d3576107d36128fa565b9060005260206000200160006101000a8154816001600160a01b0302191690836001600160a01b0316021790555061080e565b60010161077e565b50604080516001600160a01b038085168252831660208201527feeb293e1f8f3a9db91ade748726387ed1352ca78f5430c5f06fe3d1e1ad5057991015b60405180910390a15050565b6007818154811061086757600080fd5b6000918252602090912001546001600160a01b0316905081565b6006818154811061086757600080fd5b600082815260016020819052604090912001546108ad81611f76565b6108b78383611f05565b50505050565b6001600160a01b03811633146108e65760405163334bd91960e11b815260040160405180910390fd5b6108f08282611e90565b505050565b600080516020612da283398151915261090d81611f76565b60008211801561091f57506009548211155b61095e5760405162461bcd60e51b815260206004820152601060248201526f125b9d985b1a59081858dd1a5bdb925960821b6044820152606401610635565b61096782611f80565b5050565b606060068054806020026020016040519081016040528092919081815260200182805480156109c357602002820191906000526020600020905b81546001600160a01b031681526001909101906020018083116109a5575b5050505050905090565b60065460609060009067ffffffffffffffff8111156109ee576109ee612910565b604051908082528060200260200182016040528015610a5557816020015b610a42604051806080016040528060006001600160a01b0316815260200160608152602001600081526020016000151581525090565b815260200190600190039081610a0c5790505b50905060005b600654811015610b8f576004600060068381548110610a7c57610a7c6128fa565b60009182526020808320909101546001600160a01b0390811684528382019490945260409283019091208251608081019093528054909316825260018301805492939291840191610acc90612926565b80601f0160208091040260200160405190810160405280929190818152602001828054610af890612926565b8015610b455780601f10610b1a57610100808354040283529160200191610b45565b820191906000526020600020905b815481529060010190602001808311610b2857829003601f168201915b50505091835250506002820154602082015260039091015460ff1615156040909101528251839083908110610b7c57610b7c6128fa565b6020908102919091010152600101610a5b565b50919050565b600a60205260009081526040902080546001820154600483015460058401805460ff9094169492936001600160a01b039092169291610bd390612926565b80601f0160208091040260200160405190810160405280929190818152602001828054610bff90612926565b8015610c4c5780601f10610c2157610100808354040283529160200191610c4c565b820191906000526020600020905b815481529060010190602001808311610c2f57829003601f168201915b50505050600683015460079093015491929160ff80821692506101009091041687565b60606000805b600654811015610cef576001600160a01b03841660009081526005602052604081206006805483919085908110610cae57610cae6128fa565b60009182526020808320909101546001600160a01b031683528201929092526040019020541115610ce75781610ce381612970565b9250505b600101610c75565b5060008167ffffffffffffffff811115610d0b57610d0b612910565b604051908082528060200260200182016040528015610d6057816020015b610d4d60405180606001604052806000815260200160008152602001600081525090565b815260200190600190039081610d295790505b5090506000805b600654811015610e77576001600160a01b03861660009081526005602052604081206006805483919085908110610da057610da06128fa565b60009182526020808320909101546001600160a01b031683528201929092526040019020541115610e6f576001600160a01b03861660009081526005602052604081206006805491929184908110610dfa57610dfa6128fa565b60009182526020808320909101546001600160a01b03168352828101939093526040918201902081516060810183528154815260018201549381019390935260020154908201528351849084908110610e5557610e556128fa565b60200260200101819052508180610e6b90612970565b9250505b600101610d67565b5090949350505050565b60009182526001602090815260408084206001600160a01b0393909316845291905290205460ff1690565b606060078054806020026020016040519081016040528092919081815260200182805480156109c3576020028201919060005260206000209081546001600160a01b031681526001909101906020018083116109a5575050505050905090565b610f146120b4565b6001600160a01b0382166000908152600460205260409020600381015460ff16610f505760405162461bcd60e51b815260040161063590612989565b6000816002015411610f9b5760405162461bcd60e51b815260206004820152601460248201527314185a5c881a185cc81e995c9bc81dd95a59da1d60621b6044820152606401610635565b66038d7ea4c68000821015610fe95760405162461bcd60e51b81526020600482015260146024820152735374616b6520616d6f756e7420746f6f206c6f7760601b6044820152606401610635565b6001600160801b038211156110385760405162461bcd60e51b81526020600482015260156024820152740a6e8c2d6ca40c2dadeeadce840e8dede40d0d2ced605b1b6044820152606401610635565b61104233846120de565b3360009081526005602090815260408083206001600160a01b038716845290915281208054909184918391906110799084906129b2565b909155505067ffffffffffffffff421660018201556110a36001600160a01b03851633308661227b565b7ffb8efd70c9f0ca009bfc9f2ca8a9256a5aefbc720bdb8d838e4bcd42c241b9eb3385856040516110d6939291906129c5565b60405180910390a150506109676001600055565b6000600080516020612da283398151915261110481611f76565b6009805490600061111483612970565b9091555050600980546000908152600a6020526040808220805460ff1916815560018101879055925490517fff1f23bc7538ef354da69561506eedc8078a7bce7b70ef9877b7bbad4f7ca3789261116e92913391906129e9565b60405180910390a1611181600954611f80565b505060095492915050565b600080516020612da28339815191526111a481611f76565b6000821180156111b657506009548211155b6111f55760405162461bcd60e51b815260206004820152601060248201526f125b9d985b1a59081858dd1a5bdb925960821b6044820152606401610635565b6000828152600a60205260409020600781015460ff161561124b5760405162461bcd60e51b815260206004820152601060248201526f105b1c9958591e48195e1958dd5d195960821b6044820152606401610635565b6007810154600161010090910460ff1610156112a05760405162461bcd60e51b81526020600482015260146024820152734e6f7420656e6f75676820617070726f76616c7360601b6044820152606401610635565b6000815460ff1660028111156112b8576112b861264e565b036112ff57600181015460038190556040519081527f6ed114cf5120e1289837038aad9d22456d2a33f7e63198f79a90d742d21afbdd9060200160405180910390a161183e565b6001815460ff1660028111156113175761131761264e565b036114de576002810154600060088190555b8181101561142b5760006001600160a01b031660046000856002018481548110611355576113556128fa565b60009182526020808320909101546001600160a01b03908116845290830193909352604090910190205416036113c25760405162461bcd60e51b815260206004820152601260248201527114185a5c88191bd95cdb89dd08195e1a5cdd60721b6044820152606401610635565b8260030181815481106113d7576113d76128fa565b9060005260206000200154600460008560020184815481106113fb576113fb6128fa565b60009182526020808320909101546001600160a01b03168352820192909252604001902060020155600101611329565b5060005b600654811015611498576004600060068381548110611450576114506128fa565b60009182526020808320909101546001600160a01b03168352820192909252604001812060020154600880549192909161148b9084906129b2565b909155505060010161142f565b507f7f9d3b855249ef24ed9613191786a1fc8d2afafdc45ab1ec9c1a051589d7837c82600201836003016040516114d0929190612a14565b60405180910390a15061183e565b6002815460ff1660028111156114f6576114f661264e565b0361183e576004818101546001600160a01b03908116600090815260209290925260409091205416156115615760405162461bcd60e51b81526020600482015260136024820152725061697220616c72656164792065786973747360681b6044820152606401610635565b6006546064116115a45760405162461bcd60e51b815260206004820152600e60248201526d546f6f206d616e7920706169727360901b6044820152606401610635565b612710816006015411156115ec5760405162461bcd60e51b815260206004820152600f60248201526e0aecad2ced0e840e8dede40d0d2ced608b1b6044820152606401610635565b60208160050180546115fd90612926565b905011156116465760405162461bcd60e51b8152602060048201526016602482015275506c6174666f726d206e616d6520746f6f206c6f6e6760501b6044820152606401610635565b604080516080810190915260048201546001600160a01b0316815260058201805460208301919061167690612926565b80601f01602080910402602001604051908101604052809291908181526020018280546116a290612926565b80156116ef5780601f106116c4576101008083540402835291602001916116ef565b820191906000526020600020905b8154815290600101906020018083116116d257829003601f168201915b50505091835250506006830154602080830191909152600160409283018190526004808601546001600160a01b039081166000908152918452939020845181546001600160a01b031916941693909317835590830151908201906117539082612af8565b50604082015160028201556060909101516003909101805491151560ff1990921691909117905560048101546006805460018101825560008281527ff652222313e28459528d920b65115c16c04f3efc82aaedc97be59f3f377c0d3f90910180546001600160a01b0319166001600160a01b039094169390931790925582015460088054919290916117e69084906129b2565b9091555050600481015460068201546040517f0a75180afe57477e6f07d0789053cbdb7699cde088de468ea9e91c0e910d80ef92611835926001600160a01b0390911691600586019190612bb7565b60405180910390a15b60078101805460ff191660011790556040517f7cd79380f59dcb9a2e87db5e49009e2cb7ff8a3175bf8db0137c71bd7abe71439061187f9085815260200190565b60405180910390a1505050565b6118946120b4565b6001600160a01b0382166000908152600460205260409020600381015460ff166118d05760405162461bcd60e51b815260040161063590612989565b3360009081526005602090815260408083206001600160a01b0387168452909152902080548311156119395760405162461bcd60e51b8152602060048201526012602482015271496e73756666696369656e74207374616b6560701b6044820152606401610635565b61194333856120de565b828160000160008282546119579190612c5d565b9091555061197190506001600160a01b03851633856122d5565b7fc970f16cd3ec5b32f311b9501d3274f497db81bb41ef2937fad509e835bbd2513385856040516110d6939291906129c5565b6001600160a01b038082166000908152600460205260408120805460028201546003830154600184018054959660609688968796909592169360ff169083906119ec90612926565b80601f0160208091040260200160405190810160405280929190818152602001828054611a1890612926565b8015611a655780601f10611a3a57610100808354040283529160200191611a65565b820191906000526020600020905b815481529060010190602001808311611a4857829003601f168201915b505050505092509450945094509450509193509193565b60008281526001602081905260409091200154611a9881611f76565b6108b78383611e90565b6000600080516020612da2833981519152611abc81611f76565b848314611b0b5760405162461bcd60e51b815260206004820152601860248201527f4172726179206c656e67746873206d757374206d6174636800000000000000006044820152606401610635565b60098054906000611b1b83612970565b90915550506009546000908152600a60205260409020805460ff19166001178155611b4a6002820188886123b0565b50611b59600382018686612413565b507fff1f23bc7538ef354da69561506eedc8078a7bce7b70ef9877b7bbad4f7ca378600954336001604051611b90939291906129e9565b60405180910390a1611ba3600954611f80565b505060095495945050505050565b6000600080516020612da2833981519152611bcb81611f76565b6001600160a01b038616611c105760405162461bcd60e51b815260206004820152600c60248201526b24b73b30b634b2103830b4b960a11b6044820152606401610635565b60098054906000611c2083612970565b90915550506009546000908152600a60205260409020805460ff191660021781556004810180546001600160a01b0389166001600160a01b031990911617905560058101611c6f868883612c70565b50600681018490556009546040517fff1f23bc7538ef354da69561506eedc8078a7bce7b70ef9877b7bbad4f7ca37891611b909133906002906129e9565b611cb56120b4565b6001600160a01b0381166000908152600460205260409020600381015460ff16611cf15760405162461bcd60e51b815260040161063590612989565b611cfb33836120de565b3360009081526005602090815260408083206001600160a01b03861684529091529020600281015480611d665760405162461bcd60e51b81526020600482015260136024820152724e6f207265776172647320746f20636c61696d60681b6044820152606401610635565b600060028084019190915554611d86906001600160a01b031633836122d5565b7f9310ccfcb8de723f578a9e4282ea9f521f05ae40dc08f3068dfad528a65ee3c7338583604051611db9939291906129c5565b60405180910390a1505050611dce6001600055565b50565b600460205260009081526040902080546001820180546001600160a01b039092169291611dfd90612926565b80601f0160208091040260200160405190810160405280929190818152602001828054611e2990612926565b8015611e765780601f10611e4b57610100808354040283529160200191611e76565b820191906000526020600020905b815481529060010190602001808311611e5957829003601f168201915b50505050600283015460039093015491929160ff16905084565b6000611e9c8383610e81565b15611efd5760008381526001602090815260408083206001600160a01b0386168085529252808320805460ff1916905551339286917ff6391f5c32d9c69d2a47ea670b442974b53935d1edc7fd64eb21e047a839171b9190a45060016105de565b5060006105de565b6000611f118383610e81565b611efd5760008381526001602081815260408084206001600160a01b0387168086529252808420805460ff19169093179092559051339286917f2f8788117e7eff1d82e926ec794901d17c78024a50270940304540a733656f0d9190a45060016105de565b611dce8133612306565b6000818152600a60205260409020600781015460ff1615611fd65760405162461bcd60e51b815260206004820152601060248201526f105b1c9958591e48195e1958dd5d195960821b6044820152606401610635565b33600090815260088201602052604090205460ff161561202b5760405162461bcd60e51b815260206004820152601060248201526f105b1c9958591e48185c1c1c9bdd995960821b6044820152606401610635565b3360009081526008820160205260409020805460ff19166001908117909155600782018054610100900460ff169161206283612d30565b825460ff9182166101009390930a928302919092021990911617905550604080518381523360208201527f13f5ed40f1478eb39ccc91c62e3e395db4ea1b1afc8928825652b67136b06044910161084b565b6002600054036120d757604051633ee5aeb560e01b815260040160405180910390fd5b6002600055565b6001600160a01b038083166000908152600560209081526040808320938516835292815282822060049091529190208154156122655760008260010154426121269190612c5d565b905060008111801561213a57506000600854115b15612263576040516370a0823160e01b81523060048201526000906001600160a01b038616906370a0823190602401602060405180830381865afa158015612186573d6000803e3d6000fd5b505050506040513d601f19601f820116820180604052508101906121aa9190612d4f565b90508015612261576000620151806003546121c59190612d68565b90506000600854856002015485846121dd9190612d8a565b6121e79190612d8a565b6121f19190612d68565b90506000612207670de0b6b3a764000085612d8a565b87546122139084612d8a565b61221d9190612d68565b905060008111801561223557506001600160801b0381105b1561225d57806001600160801b031687600201600082825461225791906129b2565b90915550505b5050505b505b505b5067ffffffffffffffff42166001909101555050565b6108b784856001600160a01b03166323b872dd8686866040516024016122a3939291906129c5565b604051602081830303815290604052915060e01b6020820180516001600160e01b03838183161783525050505061233f565b6040516001600160a01b038381166024830152604482018390526108f091859182169063a9059cbb906064016122a3565b6123108282610e81565b6109675760405163e2517d3f60e01b81526001600160a01b038216600482015260248101839052604401610635565b600080602060008451602086016000885af180612362576040513d6000823e3d81fd5b50506000513d9150811561237a578060011415612387565b6001600160a01b0384163b155b156108b757604051635274afe760e01b81526001600160a01b0385166004820152602401610635565b828054828255906000526020600020908101928215612403579160200282015b828111156124035781546001600160a01b0319166001600160a01b038435161782556020909201916001909101906123d0565b5061240f92915061244e565b5090565b828054828255906000526020600020908101928215612403579160200282015b82811115612403578235825591602001919060010190612433565b5b8082111561240f576000815560010161244f565b60006020828403121561247557600080fd5b81356001600160e01b03198116811461248d57600080fd5b9392505050565b80356001600160a01b03811681146124ab57600080fd5b919050565b600080604083850312156124c357600080fd5b6124cc83612494565b91506124da60208401612494565b90509250929050565b6000602082840312156124f557600080fd5b5035919050565b6000806040838503121561250f57600080fd5b823591506124da60208401612494565b602080825282518282018190526000918401906040840190835b818110156125605783516001600160a01b0316835260209384019390920191600101612539565b509095945050505050565b6000815180845260005b8181101561259157602081850181015186830182015201612575565b506000602082860101526020601f19601f83011685010191505092915050565b6000602082016020835280845180835260408501915060408160051b86010192506020860160005b8281101561264257868503603f19018452815180516001600160a01b031686526020808201516080918801829052906126149088018261256b565b60408381015190890152606092830151151592909701919091525060209384019391909101906001016125d9565b50929695505050505050565b634e487b7160e01b600052602160045260246000fd5b6003811061268257634e487b7160e01b600052602160045260246000fd5b9052565b6126908189612664565b86602082015260018060a01b038616604082015260e0606082015260006126ba60e083018761256b565b60808301959095525091151560a083015260ff1660c090910152949350505050565b6000602082840312156126ee57600080fd5b61248d82612494565b602080825282518282018190526000918401906040840190835b8181101561256057835180518452602081015160208501526040810151604085015250606083019250602084019350600181019050612711565b6000806040838503121561275e57600080fd5b61276783612494565b946020939093013593505050565b6001600160a01b03851681526080602082018190526000906127999083018661256b565b60408301949094525090151560609091015292915050565b60008083601f8401126127c357600080fd5b50813567ffffffffffffffff8111156127db57600080fd5b6020830191508360208260051b85010111156127f657600080fd5b9250929050565b6000806000806040858703121561281357600080fd5b843567ffffffffffffffff81111561282a57600080fd5b612836878288016127b1565b909550935050602085013567ffffffffffffffff81111561285657600080fd5b612862878288016127b1565b95989497509550505050565b6000806000806060858703121561288457600080fd5b61288d85612494565b9350602085013567ffffffffffffffff8111156128a957600080fd5b8501601f810187136128ba57600080fd5b803567ffffffffffffffff8111156128d157600080fd5b8760208284010111156128e357600080fd5b949760209190910196509394604001359392505050565b634e487b7160e01b600052603260045260246000fd5b634e487b7160e01b600052604160045260246000fd5b600181811c9082168061293a57607f821691505b602082108103610b8f57634e487b7160e01b600052602260045260246000fd5b634e487b7160e01b600052601160045260246000fd5b6000600182016129825761298261295a565b5060010190565b6020808252600f908201526e50616972206e6f742061637469766560881b604082015260600190565b808201808211156105de576105de61295a565b6001600160a01b039384168152919092166020820152604081019190915260600190565b8381526001600160a01b038316602082015260608101612a0c6040830184612664565b949350505050565b6040808252835490820181905260008481526020812090916060840190835b81811015612a5a5783546001600160a01b0316835260019384019360209093019201612a33565b505083810360208501528091508454808252602082019250856000526020600020915060005b81811015612a9e578254845260209093019260019283019201612a80565b50919695505050505050565b601f8211156108f057806000526020600020601f840160051c81016020851015612ad15750805b601f840160051c820191505b81811015612af15760008155600101612add565b5050505050565b815167ffffffffffffffff811115612b1257612b12612910565b612b2681612b208454612926565b84612aaa565b6020601f821160018114612b5a5760008315612b425750848201515b600019600385901b1c1916600184901b178455612af1565b600084815260208120601f198516915b82811015612b8a5787850151825560209485019460019092019101612b6a565b5084821015612ba85786840151600019600387901b60f8161c191681555b50505050600190811b01905550565b6001600160a01b03841681526060602082015282546000908190612bda81612926565b8060608601526001821660008114612bf95760018114612c1557612c49565b60ff1983166080870152608082151560051b8701019350612c49565b87600052602060002060005b83811015612c4057815488820160800152600190910190602001612c21565b87016080019450505b505050604092909201929092529392505050565b818103818111156105de576105de61295a565b67ffffffffffffffff831115612c8857612c88612910565b612c9c83612c968354612926565b83612aaa565b6000601f841160018114612cd05760008515612cb85750838201355b600019600387901b1c1916600186901b178355612af1565b600083815260209020601f19861690835b82811015612d015786850135825560209485019460019092019101612ce1565b5086821015612d1e5760001960f88860031b161c19848701351681555b505060018560011b0183555050505050565b600060ff821660ff8103612d4657612d4661295a565b60010192915050565b600060208284031215612d6157600080fd5b5051919050565b600082612d8557634e487b7160e01b600052601260045260246000fd5b500490565b80820281158282048414176105de576105de61295a56fea49807205ce4d355092ef5a8a18f56e8913cf4a201fbe287825b095693c21775a2646970667358221220c3a5213f37b066d9c33740d1ee4758123877d5b3049df1ab3210ac221d2bafde64736f6c634300081c0033",
  "linkReferences": {},
  "deployedLinkReferences": {}
}